{
  "contractName": "GovTok",
  "abi": [
    {
      "inputs": [
        {
          "internalType": "uint256",
          "name": "initialSupply",
          "type": "uint256"
        }
      ],
      "stateMutability": "nonpayable",
      "type": "constructor"
    },
    {
      "inputs": [
        {
          "internalType": "address",
          "name": "spender",
          "type": "address"
        },
        {
          "internalType": "uint256",
          "name": "allowance",
          "type": "uint256"
        },
        {
          "internalType": "uint256",
          "name": "needed",
          "type": "uint256"
        }
      ],
      "name": "ERC20InsufficientAllowance",
      "type": "error"
    },
    {
      "inputs": [
        {
          "internalType": "address",
          "name": "sender",
          "type": "address"
        },
        {
          "internalType": "uint256",
          "name": "balance",
          "type": "uint256"
        },
        {
          "internalType": "uint256",
          "name": "needed",
          "type": "uint256"
        }
      ],
      "name": "ERC20InsufficientBalance",
      "type": "error"
    },
    {
      "inputs": [
        {
          "internalType": "address",
          "name": "approver",
          "type": "address"
        }
      ],
      "name": "ERC20InvalidApprover",
      "type": "error"
    },
    {
      "inputs": [
        {
          "internalType": "address",
          "name": "receiver",
          "type": "address"
        }
      ],
      "name": "ERC20InvalidReceiver",
      "type": "error"
    },
    {
      "inputs": [
        {
          "internalType": "address",
          "name": "sender",
          "type": "address"
        }
      ],
      "name": "ERC20InvalidSender",
      "type": "error"
    },
    {
      "inputs": [
        {
          "internalType": "address",
          "name": "spender",
          "type": "address"
        }
      ],
      "name": "ERC20InvalidSpender",
      "type": "error"
    },
    {
      "anonymous": false,
      "inputs": [
        {
          "indexed": true,
          "internalType": "address",
          "name": "owner",
          "type": "address"
        },
        {
          "indexed": true,
          "internalType": "address",
          "name": "spender",
          "type": "address"
        },
        {
          "indexed": false,
          "internalType": "uint256",
          "name": "value",
          "type": "uint256"
        }
      ],
      "name": "Approval",
      "type": "event"
    },
    {
      "anonymous": false,
      "inputs": [
        {
          "indexed": true,
          "internalType": "uint256",
          "name": "id",
          "type": "uint256"
        },
        {
          "indexed": true,
          "internalType": "address",
          "name": "proposer",
          "type": "address"
        },
        {
          "indexed": false,
          "internalType": "string",
          "name": "description",
          "type": "string"
        }
      ],
      "name": "ProposalCreated",
      "type": "event"
    },
    {
      "anonymous": false,
      "inputs": [
        {
          "indexed": true,
          "internalType": "uint256",
          "name": "id",
          "type": "uint256"
        }
      ],
      "name": "ProposalExecuted",
      "type": "event"
    },
    {
      "anonymous": false,
      "inputs": [
        {
          "indexed": true,
          "internalType": "address",
          "name": "from",
          "type": "address"
        },
        {
          "indexed": true,
          "internalType": "address",
          "name": "to",
          "type": "address"
        },
        {
          "indexed": false,
          "internalType": "uint256",
          "name": "value",
          "type": "uint256"
        }
      ],
      "name": "Transfer",
      "type": "event"
    },
    {
      "anonymous": false,
      "inputs": [
        {
          "indexed": true,
          "internalType": "uint256",
          "name": "id",
          "type": "uint256"
        },
        {
          "indexed": true,
          "internalType": "address",
          "name": "voter",
          "type": "address"
        },
        {
          "indexed": false,
          "internalType": "bool",
          "name": "inSupport",
          "type": "bool"
        }
      ],
      "name": "Voted",
      "type": "event"
    },
    {
      "inputs": [
        {
          "internalType": "address",
          "name": "owner",
          "type": "address"
        },
        {
          "internalType": "address",
          "name": "spender",
          "type": "address"
        }
      ],
      "name": "allowance",
      "outputs": [
        {
          "internalType": "uint256",
          "name": "",
          "type": "uint256"
        }
      ],
      "stateMutability": "view",
      "type": "function",
      "constant": true
    },
    {
      "inputs": [
        {
          "internalType": "address",
          "name": "spender",
          "type": "address"
        },
        {
          "internalType": "uint256",
          "name": "value",
          "type": "uint256"
        }
      ],
      "name": "approve",
      "outputs": [
        {
          "internalType": "bool",
          "name": "",
          "type": "bool"
        }
      ],
      "stateMutability": "nonpayable",
      "type": "function"
    },
    {
      "inputs": [
        {
          "internalType": "address",
          "name": "account",
          "type": "address"
        }
      ],
      "name": "balanceOf",
      "outputs": [
        {
          "internalType": "uint256",
          "name": "",
          "type": "uint256"
        }
      ],
      "stateMutability": "view",
      "type": "function",
      "constant": true
    },
    {
      "inputs": [],
      "name": "decimals",
      "outputs": [
        {
          "internalType": "uint8",
          "name": "",
          "type": "uint8"
        }
      ],
      "stateMutability": "view",
      "type": "function",
      "constant": true
    },
    {
      "inputs": [
        {
          "internalType": "uint256",
          "name": "",
          "type": "uint256"
        },
        {
          "internalType": "address",
          "name": "",
          "type": "address"
        }
      ],
      "name": "hasVoted",
      "outputs": [
        {
          "internalType": "bool",
          "name": "",
          "type": "bool"
        }
      ],
      "stateMutability": "view",
      "type": "function",
      "constant": true
    },
    {
      "inputs": [],
      "name": "name",
      "outputs": [
        {
          "internalType": "string",
          "name": "",
          "type": "string"
        }
      ],
      "stateMutability": "view",
      "type": "function",
      "constant": true
    },
    {
      "inputs": [],
      "name": "proposalCount",
      "outputs": [
        {
          "internalType": "uint256",
          "name": "",
          "type": "uint256"
        }
      ],
      "stateMutability": "view",
      "type": "function",
      "constant": true
    },
    {
      "inputs": [
        {
          "internalType": "uint256",
          "name": "",
          "type": "uint256"
        }
      ],
      "name": "proposals",
      "outputs": [
        {
          "internalType": "address",
          "name": "proposer",
          "type": "address"
        },
        {
          "internalType": "string",
          "name": "description",
          "type": "string"
        },
        {
          "internalType": "uint256",
          "name": "forVotes",
          "type": "uint256"
        },
        {
          "internalType": "uint256",
          "name": "againstVotes",
          "type": "uint256"
        },
        {
          "internalType": "bool",
          "name": "executed",
          "type": "bool"
        },
        {
          "internalType": "bool",
          "name": "approved",
          "type": "bool"
        }
      ],
      "stateMutability": "view",
      "type": "function",
      "constant": true
    },
    {
      "inputs": [],
      "name": "symbol",
      "outputs": [
        {
          "internalType": "string",
          "name": "",
          "type": "string"
        }
      ],
      "stateMutability": "view",
      "type": "function",
      "constant": true
    },
    {
      "inputs": [],
      "name": "totalSupply",
      "outputs": [
        {
          "internalType": "uint256",
          "name": "",
          "type": "uint256"
        }
      ],
      "stateMutability": "view",
      "type": "function",
      "constant": true
    },
    {
      "inputs": [
        {
          "internalType": "address",
          "name": "to",
          "type": "address"
        },
        {
          "internalType": "uint256",
          "name": "value",
          "type": "uint256"
        }
      ],
      "name": "transfer",
      "outputs": [
        {
          "internalType": "bool",
          "name": "",
          "type": "bool"
        }
      ],
      "stateMutability": "nonpayable",
      "type": "function"
    },
    {
      "inputs": [
        {
          "internalType": "address",
          "name": "from",
          "type": "address"
        },
        {
          "internalType": "address",
          "name": "to",
          "type": "address"
        },
        {
          "internalType": "uint256",
          "name": "value",
          "type": "uint256"
        }
      ],
      "name": "transferFrom",
      "outputs": [
        {
          "internalType": "bool",
          "name": "",
          "type": "bool"
        }
      ],
      "stateMutability": "nonpayable",
      "type": "function"
    },
    {
      "inputs": [
        {
          "internalType": "string",
          "name": "_description",
          "type": "string"
        }
      ],
      "name": "createProposal",
      "outputs": [
        {
          "internalType": "uint256",
          "name": "",
          "type": "uint256"
        }
      ],
      "stateMutability": "nonpayable",
      "type": "function"
    },
    {
      "inputs": [
        {
          "internalType": "uint256",
          "name": "_id",
          "type": "uint256"
        },
        {
          "internalType": "bool",
          "name": "_inSupport",
          "type": "bool"
        }
      ],
      "name": "vote",
      "outputs": [],
      "stateMutability": "nonpayable",
      "type": "function"
    },
    {
      "inputs": [
        {
          "internalType": "uint256",
          "name": "_id",
          "type": "uint256"
        }
      ],
      "name": "executeProposal",
      "outputs": [],
      "stateMutability": "nonpayable",
      "type": "function"
    },
    {
      "inputs": [],
      "name": "purchaseCoins",
      "outputs": [],
      "stateMutability": "payable",
      "type": "function",
      "payable": true
    },
    {
      "inputs": [],
      "name": "getAllProposals",
      "outputs": [
        {
          "components": [
            {
              "internalType": "address",
              "name": "proposer",
              "type": "address"
            },
            {
              "internalType": "string",
              "name": "description",
              "type": "string"
            },
            {
              "internalType": "uint256",
              "name": "forVotes",
              "type": "uint256"
            },
            {
              "internalType": "uint256",
              "name": "againstVotes",
              "type": "uint256"
            },
            {
              "internalType": "bool",
              "name": "executed",
              "type": "bool"
            },
            {
              "internalType": "bool",
              "name": "approved",
              "type": "bool"
            }
          ],
          "internalType": "struct GovTok.Proposal[]",
          "name": "",
          "type": "tuple[]"
        }
      ],
      "stateMutability": "view",
      "type": "function",
      "constant": true
    },
    {
      "inputs": [
        {
          "internalType": "uint256",
          "name": "_id",
          "type": "uint256"
        }
      ],
      "name": "getProposalStatus",
      "outputs": [
        {
          "internalType": "address",
          "name": "",
          "type": "address"
        },
        {
          "internalType": "string",
          "name": "",
          "type": "string"
        },
        {
          "internalType": "uint256",
          "name": "",
          "type": "uint256"
        },
        {
          "internalType": "uint256",
          "name": "",
          "type": "uint256"
        },
        {
          "internalType": "bool",
          "name": "",
          "type": "bool"
        },
        {
          "internalType": "bool",
          "name": "",
          "type": "bool"
        }
      ],
      "stateMutability": "view",
      "type": "function",
      "constant": true
    },
    {
      "inputs": [],
      "name": "myBalance",
      "outputs": [
        {
          "internalType": "uint256",
          "name": "",
          "type": "uint256"
        }
      ],
      "stateMutability": "view",
      "type": "function",
      "constant": true
    }
  ],
  "bytecode": "0x608060405234801562000010575f80fd5b50604051620030023803806200300283398181016040528101906200003691906200040b565b6040518060400160405280600681526020017f476f76546f6b00000000000000000000000000000000000000000000000000008152506040518060400160405280600381526020017f47565400000000000000000000000000000000000000000000000000000000008152508160039081620000b3919062000696565b508060049081620000c5919062000696565b5050503360055f6101000a81548173ffffffffffffffffffffffffffffffffffffffff021916908373ffffffffffffffffffffffffffffffffffffffff1602179055506200011a33826200012160201b60201c565b50620008a6565b5f73ffffffffffffffffffffffffffffffffffffffff168273ffffffffffffffffffffffffffffffffffffffff160362000194575f6040517fec442f050000000000000000000000000000000000000000000000000000000081526004016200018b9190620007bd565b60405180910390fd5b620001a75f8383620001ab60201b60201c565b5050565b5f73ffffffffffffffffffffffffffffffffffffffff168373ffffffffffffffffffffffffffffffffffffffff1603620001ff578060025f828254620001f2919062000805565b92505081905550620002d0565b5f805f8573ffffffffffffffffffffffffffffffffffffffff1673ffffffffffffffffffffffffffffffffffffffff1681526020019081526020015f20549050818110156200028b578381836040517fe450d38c000000000000000000000000000000000000000000000000000000008152600401620002829392919062000850565b60405180910390fd5b8181035f808673ffffffffffffffffffffffffffffffffffffffff1673ffffffffffffffffffffffffffffffffffffffff1681526020019081526020015f2081905550505b5f73ffffffffffffffffffffffffffffffffffffffff168273ffffffffffffffffffffffffffffffffffffffff160362000319578060025f828254039250508190555062000363565b805f808473ffffffffffffffffffffffffffffffffffffffff1673ffffffffffffffffffffffffffffffffffffffff1681526020019081526020015f205f82825401925050819055505b8173ffffffffffffffffffffffffffffffffffffffff168373ffffffffffffffffffffffffffffffffffffffff167fddf252ad1be2c89b69c2b068fc378daa952ba7f163c4a11628f55a4df523b3ef83604051620003c291906200088b565b60405180910390a3505050565b5f80fd5b5f819050919050565b620003e781620003d3565b8114620003f2575f80fd5b50565b5f815190506200040581620003dc565b92915050565b5f60208284031215620004235762000422620003cf565b5b5f6200043284828501620003f5565b91505092915050565b5f81519050919050565b7f4e487b71000000000000000000000000000000000000000000000000000000005f52604160045260245ffd5b7f4e487b71000000000000000000000000000000000000000000000000000000005f52602260045260245ffd5b5f6002820490506001821680620004b757607f821691505b602082108103620004cd57620004cc62000472565b5b50919050565b5f819050815f5260205f209050919050565b5f6020601f8301049050919050565b5f82821b905092915050565b5f60088302620005317fffffffffffffffffffffffffffffffffffffffffffffffffffffffffffffffff82620004f4565b6200053d8683620004f4565b95508019841693508086168417925050509392505050565b5f819050919050565b5f6200057e620005786200057284620003d3565b62000555565b620003d3565b9050919050565b5f819050919050565b62000599836200055e565b620005b1620005a88262000585565b84845462000500565b825550505050565b5f90565b620005c7620005b9565b620005d48184846200058e565b505050565b5b81811015620005fb57620005ef5f82620005bd565b600181019050620005da565b5050565b601f8211156200064a576200061481620004d3565b6200061f84620004e5565b810160208510156200062f578190505b620006476200063e85620004e5565b830182620005d9565b50505b505050565b5f82821c905092915050565b5f6200066c5f19846008026200064f565b1980831691505092915050565b5f6200068683836200065b565b9150826002028217905092915050565b620006a1826200043b565b67ffffffffffffffff811115620006bd57620006bc62000445565b5b620006c982546200049f565b620006d6828285620005ff565b5f60209050601f8311600181146200070c575f8415620006f7578287015190505b62000703858262000679565b86555062000772565b601f1984166200071c86620004d3565b5f5b8281101562000745578489015182556001820191506020850194506020810190506200071e565b8683101562000765578489015162000761601f8916826200065b565b8355505b6001600288020188555050505b505050505050565b5f73ffffffffffffffffffffffffffffffffffffffff82169050919050565b5f620007a5826200077a565b9050919050565b620007b78162000799565b82525050565b5f602082019050620007d25f830184620007ac565b92915050565b7f4e487b71000000000000000000000000000000000000000000000000000000005f52601160045260245ffd5b5f6200081182620003d3565b91506200081e83620003d3565b9250828201905080821115620008395762000838620007d8565b5b92915050565b6200084a81620003d3565b82525050565b5f606082019050620008655f830186620007ac565b6200087460208301856200083f565b6200088360408301846200083f565b949350505050565b5f602082019050620008a05f8301846200083f565b92915050565b61274e80620008b45f395ff3fe608060405260043610610113575f3560e01c806349c2a1a61161009f578063c9116b6911610063578063c9116b69146103db578063c9d27afe14610405578063cceb68f51461042d578063da35c66414610457578063dd62ed3e1461048157610113565b806349c2a1a6146102f357806370a082311461032f57806395d89b411461036b578063a9059cbb14610395578063c2b4a65c146103d157610113565b806318160ddd116100e657806318160ddd146101e657806323b872dd14610210578063313ce5671461024c578063401853b71461027657806343859632146102b757610113565b8063013cf08b1461011757806306fdde0314610158578063095ea7b3146101825780630d61b519146101be575b5f80fd5b348015610122575f80fd5b5061013d6004803603810190610138919061190a565b6104bd565b60405161014f96959493929190611a27565b60405180910390f35b348015610163575f80fd5b5061016c6105b3565b6040516101799190611a8d565b60405180910390f35b34801561018d575f80fd5b506101a860048036038101906101a39190611ad7565b610643565b6040516101b59190611b15565b60405180910390f35b3480156101c9575f80fd5b506101e460048036038101906101df919061190a565b610665565b005b3480156101f1575f80fd5b506101fa6107d9565b6040516102079190611b2e565b60405180910390f35b34801561021b575f80fd5b5061023660048036038101906102319190611b47565b6107e2565b6040516102439190611b15565b60405180910390f35b348015610257575f80fd5b50610260610810565b60405161026d9190611bb2565b60405180910390f35b348015610281575f80fd5b5061029c6004803603810190610297919061190a565b610818565b6040516102ae96959493929190611a27565b60405180910390f35b3480156102c2575f80fd5b506102dd60048036038101906102d89190611bcb565b6109ee565b6040516102ea9190611b15565b60405180910390f35b3480156102fe575f80fd5b5061031960048036038101906103149190611d35565b610a18565b6040516103269190611b2e565b60405180910390f35b34801561033a575f80fd5b5061035560048036038101906103509190611d7c565b610b95565b6040516103629190611b2e565b60405180910390f35b348015610376575f80fd5b5061037f610bda565b60405161038c9190611a8d565b60405180910390f35b3480156103a0575f80fd5b506103bb60048036038101906103b69190611ad7565b610c6a565b6040516103c89190611b15565b60405180910390f35b6103d9610c8c565b005b3480156103e6575f80fd5b506103ef610d16565b6040516103fc9190611b2e565b60405180910390f35b348015610410575f80fd5b5061042b60048036038101906104269190611dd1565b610d25565b005b348015610438575f80fd5b50610441610f7a565b60405161044e9190611fc5565b60405180910390f35b348015610462575f80fd5b5061046b611172565b6040516104789190611b2e565b60405180910390f35b34801561048c575f80fd5b506104a760048036038101906104a29190611fe5565b611178565b6040516104b49190611b2e565b60405180910390f35b6007602052805f5260405f205f91509050805f015f9054906101000a900473ffffffffffffffffffffffffffffffffffffffff169080600101805461050190612050565b80601f016020809104026020016040519081016040528092919081815260200182805461052d90612050565b80156105785780601f1061054f57610100808354040283529160200191610578565b820191905f5260205f20905b81548152906001019060200180831161055b57829003601f168201915b505050505090806002015490806003015490806004015f9054906101000a900460ff16908060040160019054906101000a900460ff16905086565b6060600380546105c290612050565b80601f01602080910402602001604051908101604052809291908181526020018280546105ee90612050565b80156106395780601f1061061057610100808354040283529160200191610639565b820191905f5260205f20905b81548152906001019060200180831161061c57829003601f168201915b5050505050905090565b5f8061064d6111fa565b905061065a818585611201565b600191505092915050565b60055f9054906101000a900473ffffffffffffffffffffffffffffffffffffffff1673ffffffffffffffffffffffffffffffffffffffff163373ffffffffffffffffffffffffffffffffffffffff16146106f4576040517f08c379a00000000000000000000000000000000000000000000000000000000081526004016106eb906120ca565b60405180910390fd5b5f60075f8381526020019081526020015f2090505f1515816004015f9054906101000a900460ff1615151461075e576040517f08c379a000000000000000000000000000000000000000000000000000000000815260040161075590612132565b60405180910390fd5b8060030154816002015411156107b95760018160040160016101000a81548160ff021916908315150217905550817f712ae1383f79ac853f8d882153778e0260ef8f03b504e2866e0593e04d2b291f60405160405180910390a25b6001816004015f6101000a81548160ff0219169083151502179055505050565b5f600254905090565b5f806107ec6111fa565b90506107f9858285611213565b6108048585856112a5565b60019150509392505050565b5f6012905090565b5f60605f805f80600654871115801561083057505f87115b61086f576040517f08c379a00000000000000000000000000000000000000000000000000000000081526004016108669061219a565b60405180910390fd5b5f60075f8981526020019081526020015f206040518060c00160405290815f82015f9054906101000a900473ffffffffffffffffffffffffffffffffffffffff1673ffffffffffffffffffffffffffffffffffffffff1673ffffffffffffffffffffffffffffffffffffffff1681526020016001820180546108f090612050565b80601f016020809104026020016040519081016040528092919081815260200182805461091c90612050565b80156109675780601f1061093e57610100808354040283529160200191610967565b820191905f5260205f20905b81548152906001019060200180831161094a57829003601f168201915b505050505081526020016002820154815260200160038201548152602001600482015f9054906101000a900460ff161515151581526020016004820160019054906101000a900460ff1615151515815250509050805f015181602001518260400151836060015184608001518560a001519650965096509650965096505091939550919395565b6008602052815f5260405f20602052805f5260405f205f915091509054906101000a900460ff1681565b5f60065f815480929190610a2b906121e5565b91905055506040518060c001604052803373ffffffffffffffffffffffffffffffffffffffff1681526020018381526020015f81526020015f81526020015f151581526020015f151581525060075f60065481526020019081526020015f205f820151815f015f6101000a81548173ffffffffffffffffffffffffffffffffffffffff021916908373ffffffffffffffffffffffffffffffffffffffff1602179055506020820151816001019081610ae391906123c9565b5060408201518160020155606082015181600301556080820151816004015f6101000a81548160ff02191690831515021790555060a08201518160040160016101000a81548160ff0219169083151502179055509050503373ffffffffffffffffffffffffffffffffffffffff166006547f7585f467599d0f008985f231af99293be388626ac16ca59505c2f8f88969cd6384604051610b839190611a8d565b60405180910390a36006549050919050565b5f805f8373ffffffffffffffffffffffffffffffffffffffff1673ffffffffffffffffffffffffffffffffffffffff1681526020019081526020015f20549050919050565b606060048054610be990612050565b80601f0160208091040260200160405190810160405280929190818152602001828054610c1590612050565b8015610c605780601f10610c3757610100808354040283529160200191610c60565b820191905f5260205f20905b815481529060010190602001808311610c4357829003601f168201915b5050505050905090565b5f80610c746111fa565b9050610c818185856112a5565b600191505092915050565b5f3411610cce576040517f08c379a0000000000000000000000000000000000000000000000000000000008152600401610cc5906124e2565b60405180910390fd5b5f606434610cdc9190612500565b9050610ce83382611395565b610d1360055f9054906101000a900473ffffffffffffffffffffffffffffffffffffffff1682611414565b50565b5f610d2033610b95565b905090565b5f60075f8481526020019081526020015f2090505f1515816004015f9054906101000a900460ff16151514610d8f576040517f08c379a0000000000000000000000000000000000000000000000000000000008152600401610d8690612132565b60405180910390fd5b5f610d9933610b95565b11610dd9576040517f08c379a0000000000000000000000000000000000000000000000000000000008152600401610dd09061258b565b60405180910390fd5b60085f8481526020019081526020015f205f3373ffffffffffffffffffffffffffffffffffffffff1673ffffffffffffffffffffffffffffffffffffffff1681526020019081526020015f205f9054906101000a900460ff1615610e72576040517f08c379a0000000000000000000000000000000000000000000000000000000008152600401610e6990612619565b60405180910390fd5b8115610e9f57610e8133610b95565b816002015f828254610e939190612637565b92505081905550610ec2565b610ea833610b95565b816003015f828254610eba9190612637565b925050819055505b600160085f8581526020019081526020015f205f3373ffffffffffffffffffffffffffffffffffffffff1673ffffffffffffffffffffffffffffffffffffffff1681526020019081526020015f205f6101000a81548160ff0219169083151502179055503373ffffffffffffffffffffffffffffffffffffffff16837ff2913dbe661ee2acc4a046d8fbcdc792373bda34c41c6086484b5345e5785e5f84604051610f6d9190611b15565b60405180910390a3505050565b60605f60065467ffffffffffffffff811115610f9957610f98611c11565b5b604051908082528060200260200182016040528015610fd257816020015b610fbf61187b565b815260200190600190039081610fb75790505b5090505f600190505b600654811161116a5760075f8281526020019081526020015f206040518060c00160405290815f82015f9054906101000a900473ffffffffffffffffffffffffffffffffffffffff1673ffffffffffffffffffffffffffffffffffffffff1673ffffffffffffffffffffffffffffffffffffffff16815260200160018201805461106490612050565b80601f016020809104026020016040519081016040528092919081815260200182805461109090612050565b80156110db5780601f106110b2576101008083540402835291602001916110db565b820191905f5260205f20905b8154815290600101906020018083116110be57829003601f168201915b505050505081526020016002820154815260200160038201548152602001600482015f9054906101000a900460ff161515151581526020016004820160019054906101000a900460ff1615151515815250508260018361113b919061266a565b8151811061114c5761114b61269d565b5b60200260200101819052508080611162906121e5565b915050610fdb565b508091505090565b60065481565b5f60015f8473ffffffffffffffffffffffffffffffffffffffff1673ffffffffffffffffffffffffffffffffffffffff1681526020019081526020015f205f8373ffffffffffffffffffffffffffffffffffffffff1673ffffffffffffffffffffffffffffffffffffffff1681526020019081526020015f2054905092915050565b5f33905090565b61120e8383836001611493565b505050565b5f61121e8484611178565b90507fffffffffffffffffffffffffffffffffffffffffffffffffffffffffffffffff811461129f5781811015611290578281836040517ffb8f41b2000000000000000000000000000000000000000000000000000000008152600401611287939291906126ca565b60405180910390fd5b61129e84848484035f611493565b5b50505050565b5f73ffffffffffffffffffffffffffffffffffffffff168373ffffffffffffffffffffffffffffffffffffffff1603611315575f6040517f96c6fd1e00000000000000000000000000000000000000000000000000000000815260040161130c91906126ff565b60405180910390fd5b5f73ffffffffffffffffffffffffffffffffffffffff168273ffffffffffffffffffffffffffffffffffffffff1603611385575f6040517fec442f0500000000000000000000000000000000000000000000000000000000815260040161137c91906126ff565b60405180910390fd5b611390838383611662565b505050565b5f73ffffffffffffffffffffffffffffffffffffffff168273ffffffffffffffffffffffffffffffffffffffff1603611405575f6040517fec442f050000000000000000000000000000000000000000000000000000000081526004016113fc91906126ff565b60405180910390fd5b6114105f8383611662565b5050565b5f73ffffffffffffffffffffffffffffffffffffffff168273ffffffffffffffffffffffffffffffffffffffff1603611484575f6040517f96c6fd1e00000000000000000000000000000000000000000000000000000000815260040161147b91906126ff565b60405180910390fd5b61148f825f83611662565b5050565b5f73ffffffffffffffffffffffffffffffffffffffff168473ffffffffffffffffffffffffffffffffffffffff1603611503575f6040517fe602df050000000000000000000000000000000000000000000000000000000081526004016114fa91906126ff565b60405180910390fd5b5f73ffffffffffffffffffffffffffffffffffffffff168373ffffffffffffffffffffffffffffffffffffffff1603611573575f6040517f94280d6200000000000000000000000000000000000000000000000000000000815260040161156a91906126ff565b60405180910390fd5b8160015f8673ffffffffffffffffffffffffffffffffffffffff1673ffffffffffffffffffffffffffffffffffffffff1681526020019081526020015f205f8573ffffffffffffffffffffffffffffffffffffffff1673ffffffffffffffffffffffffffffffffffffffff1681526020019081526020015f2081905550801561165c578273ffffffffffffffffffffffffffffffffffffffff168473ffffffffffffffffffffffffffffffffffffffff167f8c5be1e5ebec7d5bd14f71427d1e84f3dd0314c0f7b2291e5b200ac8c7c3b925846040516116539190611b2e565b60405180910390a35b50505050565b5f73ffffffffffffffffffffffffffffffffffffffff168373ffffffffffffffffffffffffffffffffffffffff16036116b2578060025f8282546116a69190612637565b92505081905550611780565b5f805f8573ffffffffffffffffffffffffffffffffffffffff1673ffffffffffffffffffffffffffffffffffffffff1681526020019081526020015f205490508181101561173b578381836040517fe450d38c000000000000000000000000000000000000000000000000000000008152600401611732939291906126ca565b60405180910390fd5b8181035f808673ffffffffffffffffffffffffffffffffffffffff1673ffffffffffffffffffffffffffffffffffffffff1681526020019081526020015f2081905550505b5f73ffffffffffffffffffffffffffffffffffffffff168273ffffffffffffffffffffffffffffffffffffffff16036117c7578060025f8282540392505081905550611811565b805f808473ffffffffffffffffffffffffffffffffffffffff1673ffffffffffffffffffffffffffffffffffffffff1681526020019081526020015f205f82825401925050819055505b8173ffffffffffffffffffffffffffffffffffffffff168373ffffffffffffffffffffffffffffffffffffffff167fddf252ad1be2c89b69c2b068fc378daa952ba7f163c4a11628f55a4df523b3ef8360405161186e9190611b2e565b60405180910390a3505050565b6040518060c001604052805f73ffffffffffffffffffffffffffffffffffffffff168152602001606081526020015f81526020015f81526020015f151581526020015f151581525090565b5f604051905090565b5f80fd5b5f80fd5b5f819050919050565b6118e9816118d7565b81146118f3575f80fd5b50565b5f81359050611904816118e0565b92915050565b5f6020828403121561191f5761191e6118cf565b5b5f61192c848285016118f6565b91505092915050565b5f73ffffffffffffffffffffffffffffffffffffffff82169050919050565b5f61195e82611935565b9050919050565b61196e81611954565b82525050565b5f81519050919050565b5f82825260208201905092915050565b5f5b838110156119ab578082015181840152602081019050611990565b5f8484015250505050565b5f601f19601f8301169050919050565b5f6119d082611974565b6119da818561197e565b93506119ea81856020860161198e565b6119f3816119b6565b840191505092915050565b611a07816118d7565b82525050565b5f8115159050919050565b611a2181611a0d565b82525050565b5f60c082019050611a3a5f830189611965565b8181036020830152611a4c81886119c6565b9050611a5b60408301876119fe565b611a6860608301866119fe565b611a756080830185611a18565b611a8260a0830184611a18565b979650505050505050565b5f6020820190508181035f830152611aa581846119c6565b905092915050565b611ab681611954565b8114611ac0575f80fd5b50565b5f81359050611ad181611aad565b92915050565b5f8060408385031215611aed57611aec6118cf565b5b5f611afa85828601611ac3565b9250506020611b0b858286016118f6565b9150509250929050565b5f602082019050611b285f830184611a18565b92915050565b5f602082019050611b415f8301846119fe565b92915050565b5f805f60608486031215611b5e57611b5d6118cf565b5b5f611b6b86828701611ac3565b9350506020611b7c86828701611ac3565b9250506040611b8d868287016118f6565b9150509250925092565b5f60ff82169050919050565b611bac81611b97565b82525050565b5f602082019050611bc55f830184611ba3565b92915050565b5f8060408385031215611be157611be06118cf565b5b5f611bee858286016118f6565b9250506020611bff85828601611ac3565b9150509250929050565b5f80fd5b5f80fd5b7f4e487b71000000000000000000000000000000000000000000000000000000005f52604160045260245ffd5b611c47826119b6565b810181811067ffffffffffffffff82111715611c6657611c65611c11565b5b80604052505050565b5f611c786118c6565b9050611c848282611c3e565b919050565b5f67ffffffffffffffff821115611ca357611ca2611c11565b5b611cac826119b6565b9050602081019050919050565b828183375f83830152505050565b5f611cd9611cd484611c89565b611c6f565b905082815260208101848484011115611cf557611cf4611c0d565b5b611d00848285611cb9565b509392505050565b5f82601f830112611d1c57611d1b611c09565b5b8135611d2c848260208601611cc7565b91505092915050565b5f60208284031215611d4a57611d496118cf565b5b5f82013567ffffffffffffffff811115611d6757611d666118d3565b5b611d7384828501611d08565b91505092915050565b5f60208284031215611d9157611d906118cf565b5b5f611d9e84828501611ac3565b91505092915050565b611db081611a0d565b8114611dba575f80fd5b50565b5f81359050611dcb81611da7565b92915050565b5f8060408385031215611de757611de66118cf565b5b5f611df4858286016118f6565b9250506020611e0585828601611dbd565b9150509250929050565b5f81519050919050565b5f82825260208201905092915050565b5f819050602082019050919050565b611e4181611954565b82525050565b5f82825260208201905092915050565b5f611e6182611974565b611e6b8185611e47565b9350611e7b81856020860161198e565b611e84816119b6565b840191505092915050565b611e98816118d7565b82525050565b611ea781611a0d565b82525050565b5f60c083015f830151611ec25f860182611e38565b5060208301518482036020860152611eda8282611e57565b9150506040830151611eef6040860182611e8f565b506060830151611f026060860182611e8f565b506080830151611f156080860182611e9e565b5060a0830151611f2860a0860182611e9e565b508091505092915050565b5f611f3e8383611ead565b905092915050565b5f602082019050919050565b5f611f5c82611e0f565b611f668185611e19565b935083602082028501611f7885611e29565b805f5b85811015611fb35784840389528151611f948582611f33565b9450611f9f83611f46565b925060208a01995050600181019050611f7b565b50829750879550505050505092915050565b5f6020820190508181035f830152611fdd8184611f52565b905092915050565b5f8060408385031215611ffb57611ffa6118cf565b5b5f61200885828601611ac3565b925050602061201985828601611ac3565b9150509250929050565b7f4e487b71000000000000000000000000000000000000000000000000000000005f52602260045260245ffd5b5f600282049050600182168061206757607f821691505b60208210810361207a57612079612023565b5b50919050565b7f4e6f7420617574686f72697a65640000000000000000000000000000000000005f82015250565b5f6120b4600e8361197e565b91506120bf82612080565b602082019050919050565b5f6020820190508181035f8301526120e1816120a8565b9050919050565b7f50726f706f73616c20616c7265616479206578656375746564210000000000005f82015250565b5f61211c601a8361197e565b9150612127826120e8565b602082019050919050565b5f6020820190508181035f83015261214981612110565b9050919050565b7f496e76616c69642070726f706f73616c204944000000000000000000000000005f82015250565b5f61218460138361197e565b915061218f82612150565b602082019050919050565b5f6020820190508181035f8301526121b181612178565b9050919050565b7f4e487b71000000000000000000000000000000000000000000000000000000005f52601160045260245ffd5b5f6121ef826118d7565b91507fffffffffffffffffffffffffffffffffffffffffffffffffffffffffffffffff8203612221576122206121b8565b5b600182019050919050565b5f819050815f5260205f209050919050565b5f6020601f8301049050919050565b5f82821b905092915050565b5f600883026122887fffffffffffffffffffffffffffffffffffffffffffffffffffffffffffffffff8261224d565b612292868361224d565b95508019841693508086168417925050509392505050565b5f819050919050565b5f6122cd6122c86122c3846118d7565b6122aa565b6118d7565b9050919050565b5f819050919050565b6122e6836122b3565b6122fa6122f2826122d4565b848454612259565b825550505050565b5f90565b61230e612302565b6123198184846122dd565b505050565b5b8181101561233c576123315f82612306565b60018101905061231f565b5050565b601f821115612381576123528161222c565b61235b8461223e565b8101602085101561236a578190505b61237e6123768561223e565b83018261231e565b50505b505050565b5f82821c905092915050565b5f6123a15f1984600802612386565b1980831691505092915050565b5f6123b98383612392565b9150826002028217905092915050565b6123d282611974565b67ffffffffffffffff8111156123eb576123ea611c11565b5b6123f58254612050565b612400828285612340565b5f60209050601f831160018114612431575f841561241f578287015190505b61242985826123ae565b865550612490565b601f19841661243f8661222c565b5f5b8281101561246657848901518255600182019150602085019450602081019050612441565b86831015612483578489015161247f601f891682612392565b8355505b6001600288020188555050505b505050505050565b7f496e73756666696369656e74204554482053656e7400000000000000000000005f82015250565b5f6124cc60158361197e565b91506124d782612498565b602082019050919050565b5f6020820190508181035f8301526124f9816124c0565b9050919050565b5f61250a826118d7565b9150612515836118d7565b9250828202612523816118d7565b9150828204841483151761253a576125396121b8565b5b5092915050565b7f496e73756666696369656e742042616c616e636520746f20566f7465000000005f82015250565b5f612575601c8361197e565b915061258082612541565b602082019050919050565b5f6020820190508181035f8301526125a281612569565b9050919050565b7f557365722068617320616c726561647920766f746564206f6e207468697320705f8201527f726f706f73616c00000000000000000000000000000000000000000000000000602082015250565b5f61260360278361197e565b915061260e826125a9565b604082019050919050565b5f6020820190508181035f830152612630816125f7565b9050919050565b5f612641826118d7565b915061264c836118d7565b9250828201905080821115612664576126636121b8565b5b92915050565b5f612674826118d7565b915061267f836118d7565b9250828203905081811115612697576126966121b8565b5b92915050565b7f4e487b71000000000000000000000000000000000000000000000000000000005f52603260045260245ffd5b5f6060820190506126dd5f830186611965565b6126ea60208301856119fe565b6126f760408301846119fe565b949350505050565b5f6020820190506127125f830184611965565b9291505056fea26469706673582212201607f8ac8de22d46b61d1c0601929ca2d4de60e60f227916bd666a7acd24cdc264736f6c63430008180033",
  "immutableReferences": {},
  "source": "// SPDX-License-Identifier: MIT\r\npragma solidity ^0.8.0;\r\n\r\n/**\r\n * @title GovTok.sol : A Solidity Smart Contract used to implement a ERC20 based Token, with Governance Features\r\n * @author Aritra Ghosh\r\n * @notice  -----\r\n */\r\n\r\nimport \"@openzeppelin/contracts/token/ERC20/ERC20.sol\";\r\n\r\n//Using the OpenZeppelin Contracts library to extend the ERC20 Contract to create a new ERC20 Token called GovTok\r\n//Necessary functions included in the ERC20 Library from Openzepplin:\r\n//totalSupply(): Returns the total available supply of the token\r\n//balanceOf(account): Returns balance of the provided account address\r\n//transfer(recipent,amount):Transfers from current account to receipents address 'amount' of Tokens\r\n//transferFrom(sender,recipent,amount):Transfers 'amount' tokens from sender address to reciever, as per the allowance mechanism\r\n\r\n/*\r\n*   GovTok is created by extending the ERC20 class from OpenZepplin.\r\n    To demonstrate the Governance features, a sample proposal voting system is implemented.\r\n    Users holding the coin will be able to vote on company proposals, \r\n    and if a majority vote is obtained, the proposal will be executed.\r\n*/\r\n\r\ncontract GovTok is ERC20 {\r\n    address internal admin;\r\n\r\n    struct Proposal {\r\n        /*\r\n        Defines the structure of a proposal in the company.\r\n        Consists of the address of the proposer, a description of the proposal.\r\n        The forVotes and againstVotes stores the weightage of the positive and negative votes,\r\n        and the executed variable holds if the Proposal is already executed or if voting is still active.\r\n        */\r\n        address proposer;\r\n        string description;\r\n        uint256 forVotes;\r\n        uint256 againstVotes;\r\n        bool executed;\r\n        bool approved;\r\n    }\r\n\r\n    uint256 public proposalCount;\r\n\r\n    mapping(uint256 => Proposal) public proposals;\r\n    mapping(uint256 => mapping(address => bool)) public hasVoted;\r\n\r\n    //Maps id to each proposal for easy access.\r\n\r\n    modifier onlyAdmin() {\r\n        require(msg.sender == admin, \"Not authorized\");\r\n        _;\r\n    }\r\n\r\n    event ProposalCreated(\r\n        uint256 indexed id,\r\n        address indexed proposer,\r\n        string description\r\n    );\r\n\r\n    //Event to log Proposal Creation\r\n\r\n    event Voted(uint256 indexed id, address indexed voter, bool inSupport); //Event to Log Votes\r\n    event ProposalExecuted(uint256 indexed id); //Event to log Execution of Proposals\r\n\r\n    constructor(uint256 initialSupply) ERC20(\"GovTok\", \"GVT\") {\r\n        //Admin decides how many coins to mint.\r\n        admin = msg.sender;\r\n        _mint(msg.sender, initialSupply);\r\n    }\r\n\r\n    function createProposal(\r\n        string memory _description\r\n    ) external returns (uint256) {\r\n        //Creates a Proposal\r\n        proposalCount++;\r\n        proposals[proposalCount] = Proposal({\r\n            proposer: msg.sender,\r\n            description: _description,\r\n            forVotes: 0,\r\n            againstVotes: 0,\r\n            executed: false,\r\n            approved: false\r\n        });\r\n        emit ProposalCreated(proposalCount, msg.sender, _description);\r\n        return proposalCount;\r\n    }\r\n\r\n    function vote(uint256 _id, bool _inSupport) external {\r\n        //Allows user to vote, where the weightage of the votes depend on the number of coins they are holding.\r\n        Proposal storage proposal = proposals[_id];\r\n        require(proposal.executed == false, \"Proposal already executed!\");\r\n        require(balanceOf(msg.sender) > 0, \"Insufficient Balance to Vote\");\r\n        require(\r\n            !hasVoted[_id][msg.sender],\r\n            \"User has already voted on this proposal\"\r\n        );\r\n\r\n        if (_inSupport) {\r\n            proposal.forVotes += balanceOf(msg.sender);\r\n        } else {\r\n            proposal.againstVotes += balanceOf(msg.sender);\r\n        }\r\n        hasVoted[_id][msg.sender] = true; // Mark the user as voted\r\n        emit Voted(_id, msg.sender, _inSupport);\r\n    }\r\n\r\n    function executeProposal(uint256 _id) external onlyAdmin {\r\n        //Gives the admin power to execute a proposal based on the votes.\r\n\r\n        Proposal storage proposal = proposals[_id];\r\n        require(proposal.executed == false, \"Proposal already executed!\");\r\n\r\n        if (proposal.forVotes > proposal.againstVotes) {\r\n            proposal.approved = true;\r\n            emit ProposalExecuted(_id);\r\n        }\r\n        proposal.executed=true;\r\n    }\r\n\r\n    function purchaseCoins() public payable {\r\n        //Allows users to purchase tokens for Ethereum\r\n\r\n        require(msg.value > 0, \"Insufficient ETH Sent\");\r\n\r\n        //Assuming 1 ETH= 100 GVT\r\n\r\n        uint256 gvtAmount = msg.value * 100;\r\n        _mint(msg.sender,gvtAmount);\r\n        _burn(admin,gvtAmount);\r\n    }\r\n\r\n    function getAllProposals() external view returns (Proposal[] memory) {\r\n        Proposal[] memory allProposals = new Proposal[](proposalCount);\r\n\r\n        for (uint256 i = 1; i <= proposalCount; i++) {\r\n            allProposals[i - 1] = proposals[i];\r\n        }\r\n\r\n        return allProposals;\r\n    }\r\n\r\n    function getProposalStatus(\r\n        uint256 _id\r\n    ) external view returns (address, string memory, uint256, uint256, bool,bool) {\r\n        require(_id <= proposalCount && _id > 0, \"Invalid proposal ID\");\r\n\r\n        Proposal memory proposal = proposals[_id];\r\n        return (\r\n            proposal.proposer,\r\n            proposal.description,\r\n            proposal.forVotes,\r\n            proposal.againstVotes,\r\n            proposal.executed,\r\n            proposal.approved\r\n        );\r\n    }\r\n\r\n    function myBalance() public view returns(uint256)\r\n    {\r\n        return balanceOf(msg.sender);\r\n    }\r\n}\r\n",
  "sourcePath": "C:\\Root Data\\Programming\\Projects\\MyGovTok\\contracts\\GovTok.sol",
  "compiler": {
    "name": "solc",
    "version": "0.8.24+commit.e11b9ed9.Emscripten.clang"
  },
  "schemaVersion": "3.4.16",
  "updatedAt": "2024-02-03T17:18:42.775Z",
  "networkType": "ethereum",
  "devdoc": {
    "errors": {
      "ERC20InsufficientAllowance(address,uint256,uint256)": [
        {
          "details": "Indicates a failure with the `spender`s `allowance`. Used in transfers.",
          "params": {
            "allowance": "Amount of tokens a `spender` is allowed to operate with.",
            "needed": "Minimum amount required to perform a transfer.",
            "spender": "Address that may be allowed to operate on tokens without being their owner."
          }
        }
      ],
      "ERC20InsufficientBalance(address,uint256,uint256)": [
        {
          "details": "Indicates an error related to the current `balance` of a `sender`. Used in transfers.",
          "params": {
            "balance": "Current balance for the interacting account.",
            "needed": "Minimum amount required to perform a transfer.",
            "sender": "Address whose tokens are being transferred."
          }
        }
      ],
      "ERC20InvalidApprover(address)": [
        {
          "details": "Indicates a failure with the `approver` of a token to be approved. Used in approvals.",
          "params": {
            "approver": "Address initiating an approval operation."
          }
        }
      ],
      "ERC20InvalidReceiver(address)": [
        {
          "details": "Indicates a failure with the token `receiver`. Used in transfers.",
          "params": {
            "receiver": "Address to which tokens are being transferred."
          }
        }
      ],
      "ERC20InvalidSender(address)": [
        {
          "details": "Indicates a failure with the token `sender`. Used in transfers.",
          "params": {
            "sender": "Address whose tokens are being transferred."
          }
        }
      ],
      "ERC20InvalidSpender(address)": [
        {
          "details": "Indicates a failure with the `spender` to be approved. Used in approvals.",
          "params": {
            "spender": "Address that may be allowed to operate on tokens without being their owner."
          }
        }
      ]
    },
    "events": {
      "Approval(address,address,uint256)": {
        "details": "Emitted when the allowance of a `spender` for an `owner` is set by a call to {approve}. `value` is the new allowance."
      },
      "Transfer(address,address,uint256)": {
        "details": "Emitted when `value` tokens are moved from one account (`from`) to another (`to`). Note that `value` may be zero."
      }
    },
    "kind": "dev",
    "methods": {
      "allowance(address,address)": {
        "details": "See {IERC20-allowance}."
      },
      "approve(address,uint256)": {
        "details": "See {IERC20-approve}. NOTE: If `value` is the maximum `uint256`, the allowance is not updated on `transferFrom`. This is semantically equivalent to an infinite approval. Requirements: - `spender` cannot be the zero address."
      },
      "balanceOf(address)": {
        "details": "See {IERC20-balanceOf}."
      },
      "decimals()": {
        "details": "Returns the number of decimals used to get its user representation. For example, if `decimals` equals `2`, a balance of `505` tokens should be displayed to a user as `5.05` (`505 / 10 ** 2`). Tokens usually opt for a value of 18, imitating the relationship between Ether and Wei. This is the default value returned by this function, unless it's overridden. NOTE: This information is only used for _display_ purposes: it in no way affects any of the arithmetic of the contract, including {IERC20-balanceOf} and {IERC20-transfer}."
      },
      "name()": {
        "details": "Returns the name of the token."
      },
      "symbol()": {
        "details": "Returns the symbol of the token, usually a shorter version of the name."
      },
      "totalSupply()": {
        "details": "See {IERC20-totalSupply}."
      },
      "transfer(address,uint256)": {
        "details": "See {IERC20-transfer}. Requirements: - `to` cannot be the zero address. - the caller must have a balance of at least `value`."
      },
      "transferFrom(address,address,uint256)": {
        "details": "See {IERC20-transferFrom}. Emits an {Approval} event indicating the updated allowance. This is not required by the EIP. See the note at the beginning of {ERC20}. NOTE: Does not update the allowance if the current allowance is the maximum `uint256`. Requirements: - `from` and `to` cannot be the zero address. - `from` must have a balance of at least `value`. - the caller must have allowance for ``from``'s tokens of at least `value`."
      }
    },
    "version": 1
  },
  "userdoc": {
    "kind": "user",
    "methods": {},
    "version": 1
  }
}